{
  "address": "0xCD8a1C3ba11CF5ECfa6267617243239504a98d90",
  "abi": [
    {
      "inputs": [],
      "stateMutability": "nonpayable",
      "type": "constructor"
    },
    {
      "anonymous": false,
      "inputs": [
        {
          "indexed": true,
          "internalType": "address",
          "name": "owner",
          "type": "address"
        },
        {
          "indexed": true,
          "internalType": "address",
          "name": "approved",
          "type": "address"
        },
        {
          "indexed": true,
          "internalType": "uint256",
          "name": "tokenId",
          "type": "uint256"
        }
      ],
      "name": "Approval",
      "type": "event"
    },
    {
      "anonymous": false,
      "inputs": [
        {
          "indexed": true,
          "internalType": "address",
          "name": "owner",
          "type": "address"
        },
        {
          "indexed": true,
          "internalType": "address",
          "name": "operator",
          "type": "address"
        },
        {
          "indexed": false,
          "internalType": "bool",
          "name": "approved",
          "type": "bool"
        }
      ],
      "name": "ApprovalForAll",
      "type": "event"
    },
    {
      "anonymous": false,
      "inputs": [
        {
          "indexed": false,
          "internalType": "uint8",
          "name": "",
          "type": "uint8"
        }
      ],
      "name": "FeeWasUpdated",
      "type": "event"
    },
    {
      "anonymous": false,
      "inputs": [
        {
          "indexed": true,
          "internalType": "address",
          "name": "previousOwner",
          "type": "address"
        },
        {
          "indexed": true,
          "internalType": "address",
          "name": "newOwner",
          "type": "address"
        }
      ],
      "name": "OwnershipTransferred",
      "type": "event"
    },
    {
      "anonymous": false,
      "inputs": [
        {
          "components": [
            {
              "internalType": "uint256",
              "name": "id",
              "type": "uint256"
            },
            {
              "internalType": "address",
              "name": "owner",
              "type": "address"
            },
            {
              "internalType": "address",
              "name": "fromToken",
              "type": "address"
            },
            {
              "internalType": "address",
              "name": "toToken",
              "type": "address"
            },
            {
              "internalType": "uint256",
              "name": "amount",
              "type": "uint256"
            },
            {
              "internalType": "uint256",
              "name": "amountOut",
              "type": "uint256"
            },
            {
              "internalType": "uint256",
              "name": "takeProfit",
              "type": "uint256"
            },
            {
              "internalType": "uint256",
              "name": "stopLoss",
              "type": "uint256"
            },
            {
              "internalType": "uint256",
              "name": "maxGasPrice",
              "type": "uint256"
            },
            {
              "internalType": "uint256",
              "name": "createdAt",
              "type": "uint256"
            }
          ],
          "indexed": false,
          "internalType": "struct ISwapaInterface.Position",
          "name": "",
          "type": "tuple"
        }
      ],
      "name": "PositionWasClosed",
      "type": "event"
    },
    {
      "anonymous": false,
      "inputs": [
        {
          "components": [
            {
              "internalType": "uint256",
              "name": "id",
              "type": "uint256"
            },
            {
              "internalType": "address",
              "name": "owner",
              "type": "address"
            },
            {
              "internalType": "address",
              "name": "fromToken",
              "type": "address"
            },
            {
              "internalType": "address",
              "name": "toToken",
              "type": "address"
            },
            {
              "internalType": "uint256",
              "name": "amount",
              "type": "uint256"
            },
            {
              "internalType": "uint256",
              "name": "amountOut",
              "type": "uint256"
            },
            {
              "internalType": "uint256",
              "name": "takeProfit",
              "type": "uint256"
            },
            {
              "internalType": "uint256",
              "name": "stopLoss",
              "type": "uint256"
            },
            {
              "internalType": "uint256",
              "name": "maxGasPrice",
              "type": "uint256"
            },
            {
              "internalType": "uint256",
              "name": "createdAt",
              "type": "uint256"
            }
          ],
          "indexed": false,
          "internalType": "struct ISwapaInterface.Position",
          "name": "",
          "type": "tuple"
        }
      ],
      "name": "PositionWasOpened",
      "type": "event"
    },
    {
      "anonymous": false,
      "inputs": [
        {
          "components": [
            {
              "internalType": "uint256",
              "name": "id",
              "type": "uint256"
            },
            {
              "internalType": "address",
              "name": "owner",
              "type": "address"
            },
            {
              "internalType": "address",
              "name": "fromToken",
              "type": "address"
            },
            {
              "internalType": "address",
              "name": "toToken",
              "type": "address"
            },
            {
              "internalType": "uint256",
              "name": "amount",
              "type": "uint256"
            },
            {
              "internalType": "uint256",
              "name": "amountOut",
              "type": "uint256"
            },
            {
              "internalType": "uint256",
              "name": "takeProfit",
              "type": "uint256"
            },
            {
              "internalType": "uint256",
              "name": "stopLoss",
              "type": "uint256"
            },
            {
              "internalType": "uint256",
              "name": "maxGasPrice",
              "type": "uint256"
            },
            {
              "internalType": "uint256",
              "name": "createdAt",
              "type": "uint256"
            }
          ],
          "indexed": false,
          "internalType": "struct ISwapaInterface.Position",
          "name": "",
          "type": "tuple"
        }
      ],
      "name": "PositionWasUpdated",
      "type": "event"
    },
    {
      "anonymous": false,
      "inputs": [
        {
          "indexed": true,
          "internalType": "address",
          "name": "from",
          "type": "address"
        },
        {
          "indexed": true,
          "internalType": "address",
          "name": "to",
          "type": "address"
        },
        {
          "indexed": true,
          "internalType": "uint256",
          "name": "tokenId",
          "type": "uint256"
        }
      ],
      "name": "Transfer",
      "type": "event"
    },
    {
      "inputs": [
        {
          "internalType": "address",
          "name": "to",
          "type": "address"
        },
        {
          "internalType": "uint256",
          "name": "tokenId",
          "type": "uint256"
        }
      ],
      "name": "approve",
      "outputs": [],
      "stateMutability": "nonpayable",
      "type": "function"
    },
    {
      "inputs": [
        {
          "internalType": "address",
          "name": "owner",
          "type": "address"
        }
      ],
      "name": "balanceOf",
      "outputs": [
        {
          "internalType": "uint256",
          "name": "",
          "type": "uint256"
        }
      ],
      "stateMutability": "view",
      "type": "function"
    },
    {
      "inputs": [
        {
          "internalType": "uint256",
          "name": "tokenId",
          "type": "uint256"
        }
      ],
      "name": "burn",
      "outputs": [],
      "stateMutability": "nonpayable",
      "type": "function"
    },
    {
      "inputs": [],
      "name": "checkUpkeep",
      "outputs": [
        {
          "internalType": "bool",
          "name": "upkeepNeeded",
          "type": "bool"
        },
        {
          "internalType": "bytes",
          "name": "performData",
          "type": "bytes"
        }
      ],
      "stateMutability": "nonpayable",
      "type": "function"
    },
    {
      "inputs": [
        {
          "internalType": "uint256",
          "name": "tokenId",
          "type": "uint256"
        },
        {
          "internalType": "uint256",
          "name": "amount",
          "type": "uint256"
        }
      ],
      "name": "deposit",
      "outputs": [],
      "stateMutability": "nonpayable",
      "type": "function"
    },
    {
      "inputs": [],
      "name": "feeRate",
      "outputs": [
        {
          "internalType": "uint8",
          "name": "",
          "type": "uint8"
        }
      ],
      "stateMutability": "view",
      "type": "function"
    },
    {
      "inputs": [
        {
          "internalType": "uint256",
          "name": "tokenId",
          "type": "uint256"
        }
      ],
      "name": "getApproved",
      "outputs": [
        {
          "internalType": "address",
          "name": "",
          "type": "address"
        }
      ],
      "stateMutability": "view",
      "type": "function"
    },
    {
      "inputs": [],
      "name": "getOwnedPositions",
      "outputs": [
        {
          "internalType": "uint256[]",
          "name": "",
          "type": "uint256[]"
        }
      ],
      "stateMutability": "view",
      "type": "function"
    },
    {
      "inputs": [
        {
          "internalType": "uint256",
          "name": "tokenId",
          "type": "uint256"
        }
      ],
      "name": "getPosition",
      "outputs": [
        {
          "components": [
            {
              "internalType": "uint256",
              "name": "id",
              "type": "uint256"
            },
            {
              "internalType": "address",
              "name": "owner",
              "type": "address"
            },
            {
              "internalType": "address",
              "name": "fromToken",
              "type": "address"
            },
            {
              "internalType": "address",
              "name": "toToken",
              "type": "address"
            },
            {
              "internalType": "uint256",
              "name": "amount",
              "type": "uint256"
            },
            {
              "internalType": "uint256",
              "name": "amountOut",
              "type": "uint256"
            },
            {
              "internalType": "uint256",
              "name": "takeProfit",
              "type": "uint256"
            },
            {
              "internalType": "uint256",
              "name": "stopLoss",
              "type": "uint256"
            },
            {
              "internalType": "uint256",
              "name": "maxGasPrice",
              "type": "uint256"
            },
            {
              "internalType": "uint256",
              "name": "createdAt",
              "type": "uint256"
            }
          ],
          "internalType": "struct ISwapaInterface.Position",
          "name": "",
          "type": "tuple"
        }
      ],
      "stateMutability": "view",
      "type": "function"
    },
    {
      "inputs": [
        {
          "internalType": "address",
          "name": "owner",
          "type": "address"
        },
        {
          "internalType": "address",
          "name": "operator",
          "type": "address"
        }
      ],
      "name": "isApprovedForAll",
      "outputs": [
        {
          "internalType": "bool",
          "name": "",
          "type": "bool"
        }
      ],
      "stateMutability": "view",
      "type": "function"
    },
    {
      "inputs": [
        {
          "components": [
            {
              "internalType": "address",
              "name": "fromToken",
              "type": "address"
            },
            {
              "internalType": "address",
              "name": "toToken",
              "type": "address"
            },
            {
              "internalType": "uint256",
              "name": "amount",
              "type": "uint256"
            },
            {
              "internalType": "uint256",
              "name": "takeProfit",
              "type": "uint256"
            },
            {
              "internalType": "uint256",
              "name": "stopLoss",
              "type": "uint256"
            },
            {
              "internalType": "uint256",
              "name": "maxGasPrice",
              "type": "uint256"
            }
          ],
          "internalType": "struct ISwapaInterface.PositionParams",
          "name": "params",
          "type": "tuple"
        }
      ],
      "name": "mint",
      "outputs": [
        {
          "internalType": "uint256",
          "name": "tokenId",
          "type": "uint256"
        }
      ],
      "stateMutability": "nonpayable",
      "type": "function"
    },
    {
      "inputs": [],
      "name": "name",
      "outputs": [
        {
          "internalType": "string",
          "name": "",
          "type": "string"
        }
      ],
      "stateMutability": "view",
      "type": "function"
    },
    {
      "inputs": [],
      "name": "owner",
      "outputs": [
        {
          "internalType": "address",
          "name": "",
          "type": "address"
        }
      ],
      "stateMutability": "view",
      "type": "function"
    },
    {
      "inputs": [
        {
          "internalType": "uint256",
          "name": "tokenId",
          "type": "uint256"
        }
      ],
      "name": "ownerOf",
      "outputs": [
        {
          "internalType": "address",
          "name": "",
          "type": "address"
        }
      ],
      "stateMutability": "view",
      "type": "function"
    },
    {
      "inputs": [
        {
          "internalType": "bytes",
          "name": "performData",
          "type": "bytes"
        }
      ],
      "name": "performUpkeep",
      "outputs": [],
      "stateMutability": "nonpayable",
      "type": "function"
    },
    {
      "inputs": [],
      "name": "renounceOwnership",
      "outputs": [],
      "stateMutability": "nonpayable",
      "type": "function"
    },
    {
      "inputs": [
        {
          "internalType": "address",
          "name": "from",
          "type": "address"
        },
        {
          "internalType": "address",
          "name": "to",
          "type": "address"
        },
        {
          "internalType": "uint256",
          "name": "tokenId",
          "type": "uint256"
        }
      ],
      "name": "safeTransferFrom",
      "outputs": [],
      "stateMutability": "nonpayable",
      "type": "function"
    },
    {
      "inputs": [
        {
          "internalType": "address",
          "name": "from",
          "type": "address"
        },
        {
          "internalType": "address",
          "name": "to",
          "type": "address"
        },
        {
          "internalType": "uint256",
          "name": "tokenId",
          "type": "uint256"
        },
        {
          "internalType": "bytes",
          "name": "data",
          "type": "bytes"
        }
      ],
      "name": "safeTransferFrom",
      "outputs": [],
      "stateMutability": "nonpayable",
      "type": "function"
    },
    {
      "inputs": [
        {
          "internalType": "address",
          "name": "operator",
          "type": "address"
        },
        {
          "internalType": "bool",
          "name": "approved",
          "type": "bool"
        }
      ],
      "name": "setApprovalForAll",
      "outputs": [],
      "stateMutability": "nonpayable",
      "type": "function"
    },
    {
      "inputs": [
        {
          "internalType": "uint8",
          "name": "_fee",
          "type": "uint8"
        }
      ],
      "name": "setFeeRate",
      "outputs": [],
      "stateMutability": "nonpayable",
      "type": "function"
    },
    {
      "inputs": [
        {
          "internalType": "bytes4",
          "name": "interfaceId",
          "type": "bytes4"
        }
      ],
      "name": "supportsInterface",
      "outputs": [
        {
          "internalType": "bool",
          "name": "",
          "type": "bool"
        }
      ],
      "stateMutability": "view",
      "type": "function"
    },
    {
      "inputs": [],
      "name": "symbol",
      "outputs": [
        {
          "internalType": "string",
          "name": "",
          "type": "string"
        }
      ],
      "stateMutability": "view",
      "type": "function"
    },
    {
      "inputs": [
        {
          "internalType": "uint256",
          "name": "tokenId",
          "type": "uint256"
        }
      ],
      "name": "tokenURI",
      "outputs": [
        {
          "internalType": "string",
          "name": "",
          "type": "string"
        }
      ],
      "stateMutability": "view",
      "type": "function"
    },
    {
      "inputs": [
        {
          "internalType": "address",
          "name": "from",
          "type": "address"
        },
        {
          "internalType": "address",
          "name": "to",
          "type": "address"
        },
        {
          "internalType": "uint256",
          "name": "tokenId",
          "type": "uint256"
        }
      ],
      "name": "transferFrom",
      "outputs": [],
      "stateMutability": "nonpayable",
      "type": "function"
    },
    {
      "inputs": [
        {
          "internalType": "address",
          "name": "newOwner",
          "type": "address"
        }
      ],
      "name": "transferOwnership",
      "outputs": [],
      "stateMutability": "nonpayable",
      "type": "function"
    },
    {
      "inputs": [
        {
          "internalType": "uint256",
          "name": "tokenId",
          "type": "uint256"
        },
        {
          "internalType": "uint256",
          "name": "amount",
          "type": "uint256"
        }
      ],
      "name": "withdraw",
      "outputs": [],
      "stateMutability": "nonpayable",
      "type": "function"
    }
  ],
  "transactionHash": "0x71ed5f1c6f90c567875efbe57b36d861e47e44622b247ae7b7a277a77cc059ab",
  "args": [],
  "numDeployments": 1,
  "solcInputHash": "c2b2c13c0ca99e1831c9c44c5567bdf5",
  "bytecode": "0x60806040523480156200001157600080fd5b506040805180820182526005815264535741504160d81b60208083019182528351808501909452600384526205357560ec1b9084015281519192916200005a91600091620000e9565b50805162000070906001906020840190620000e9565b5050506200008d620000876200009360201b60201c565b62000097565b620001cc565b3390565b600680546001600160a01b038381166001600160a01b0319831681179093556040519116919082907f8be0079c531659141344cd1fd0a4f28419497f9722a3daafe3b4186f6b6457e090600090a35050565b828054620000f7906200018f565b90600052602060002090601f0160209004810192826200011b576000855562000166565b82601f106200013657805160ff191683800117855562000166565b8280016001018555821562000166579182015b828111156200016657825182559160200191906001019062000149565b506200017492915062000178565b5090565b5b8082111562000174576000815560010162000179565b600281046001821680620001a457607f821691505b60208210811415620001c657634e487b7160e01b600052602260045260246000fd5b50919050565b6135be80620001dc6000396000f3fe608060405234801561001057600080fd5b506004361061018e5760003560e01c8063715018a6116100de578063a22cb46511610097578063e2bbb15811610071578063e2bbb1581461034f578063e985e9c514610362578063eb02c30114610375578063f2fde38b146103955761018e565b8063a22cb46514610316578063b88d4fde14610329578063c87b56dd1461033c5761018e565b8063715018a6146102be5780638da5cb5b146102c657806395d89b41146102ce578063978bbdb9146102d6578063a064dbd1146102eb578063a13abdad146103005761018e565b806342966c681161014b5780635177942a116101255780635177942a146102655780636352211e1461027857806369a1a63e1461028b57806370a08231146102ab5761018e565b806342966c681461022c578063441a3e701461023f5780634585e33b146102525761018e565b806301ffc9a71461019357806306fdde03146101bc578063081812fc146101d1578063095ea7b3146101f157806323b872dd1461020657806342842e0e14610219575b600080fd5b6101a66101a13660046129dc565b6103a8565b6040516101b39190612cc3565b60405180910390f35b6101c46103ee565b6040516101b39190612ce9565b6101e46101df366004612a98565b610480565b6040516101b39190612baf565b6102046101ff3660046128ee565b6104a7565b005b6102046102143660046127c5565b610548565b6102046102273660046127c5565b610580565b61020461023a366004612a98565b61059b565b61020461024d366004612b18565b6105f2565b610204610260366004612a14565b6107f5565b610204610273366004612b39565b610851565b6101e4610286366004612a98565b6108ac565b61029e610299366004612a81565b6108e0565b6040516101b391906133e1565b61029e6102b936600461274e565b610dcc565b610204610e10565b6101e4610e24565b6101c4610e33565b6102de610e42565b6040516101b391906133ea565b6102f3610e52565b6040516101b39190612c7f565b610308610f43565b6040516101b3929190612cce565b6102046103243660046128c1565b6111f9565b610204610337366004612805565b61120f565b6101c461034a366004612a98565b611248565b61020461035d366004612b18565b611283565b6101a661037036600461278d565b611556565b610388610383366004612a98565b611584565b6040516101b39190613310565b6102046103a336600461274e565b61161d565b60006001600160e01b031982166380ac58cd60e01b14806103d957506001600160e01b03198216635b5e139f60e01b145b806103e857506103e882611654565b92915050565b6060600080546103fd906134d3565b80601f0160208091040260200160405190810160405280929190818152602001828054610429906134d3565b80156104765780601f1061044b57610100808354040283529160200191610476565b820191906000526020600020905b81548152906001019060200180831161045957829003601f168201915b5050505050905090565b600061048b8261166d565b506000908152600460205260409020546001600160a01b031690565b60006104b2826108ac565b9050806001600160a01b0316836001600160a01b031614156104ef5760405162461bcd60e51b81526004016104e6906130ad565b60405180910390fd5b806001600160a01b0316610501611692565b6001600160a01b0316148061051d575061051d81610370611692565b6105395760405162461bcd60e51b81526004016104e6906130ee565b6105438383611696565b505050565b610559610553611692565b82611704565b6105755760405162461bcd60e51b81526004016104e690612cfc565b610543838383611763565b6105438383836040518060200160405280600081525061120f565b6105a4816118a0565b6105c05760405162461bcd60e51b81526004016104e69061314b565b6105ca3382611704565b6105e65760405162461bcd60e51b81526004016104e690612fbe565b6105ef816118bd565b50565b6105fb826118a0565b6106175760405162461bcd60e51b81526004016104e69061314b565b6106213383611704565b61063d5760405162461bcd60e51b81526004016104e690612fbe565b6000828152600860208181526040928390208351610140810185528154815260018201546001600160a01b0390811693820193909352600282015483169481019490945260038101549091166060840152600481015460808401819052600582015460a0850152600682015460c0850152600782015460e085015291810154610100840152600901546101208301528210156106eb5760405162461bcd60e51b81526004016104e6906131ae565b81816080018181516106fd9190613479565b90525060008381526008602081815260409283902084518155908401516001820180546001600160a01b038084166001600160a01b0319928316179092559486015160028401805482841690881681179091556060880151600386018054919094169716969096179091556080860151600484015560a0860151600584015560c0860151600684015560e086015160078401556101008601519383019390935561012085015160099092019190915590916107b89185611bec565b7ffa213803108f5b37b48431834c4027cf714990758ec469d17a232ffcf9155bcf826040516107e79190613310565b60405180910390a150505050565b600061080382840184612919565b905060015b8151811161084b576000818152600860205260409020600101546001600160a01b03161561083957610839816118bd565b8061084381613508565b915050610808565b50505050565b610859611c42565b6006805460ff60a01b1916600160a01b60ff8416021790556040517fd8fa1e8ff875ebff90760d782902010547c92ee8d0d19f236fa3c82b13164d95906108a19083906133ea565b60405180910390a150565b6000806108b883611c81565b90506001600160a01b0381166103e85760405162461bcd60e51b81526004016104e690613076565b6000806108f0602084018461274e565b90508260400135816001600160a01b031663dd62ed3e33306040518363ffffffff1660e01b8152600401610925929190612bc3565b60206040518083038186803b15801561093d57600080fd5b505afa158015610951573d6000803e3d6000fd5b505050506040513d601f19601f820116820180604052508101906109759190612ab0565b10156109935760405162461bcd60e51b81526004016104e690612e5d565b8260400135816001600160a01b03166370a08231336040518263ffffffff1660e01b81526004016109c49190612baf565b60206040518083038186803b1580156109dc57600080fd5b505afa1580156109f0573d6000803e3d6000fd5b505050506040513d601f19601f82011682018060405250810190610a149190612ab0565b1015610a325760405162461bcd60e51b81526004016104e69061301a565b610a4b6001600160a01b03821633306040870135611c9c565b6000610a72610a5d602086018661274e565b610a6d604087016020880161274e565b611cbd565b90506000731f98431c8ad98523631ae4a59f267346ea31f984631698ee82610a9d602088018861274e565b610aad6040890160208a0161274e565b856040518463ffffffff1660e01b8152600401610acc93929190612bdd565b60206040518083038186803b158015610ae457600080fd5b505afa158015610af8573d6000803e3d6000fd5b505050506040513d601f19601f82011682018060405250810190610b1c9190612771565b90506001600160a01b038116610b445760405162461bcd60e51b81526004016104e6906131dc565b610b536040860135600a61345a565b610b7382610b64602089018961274e565b6001600160a01b031690611ef5565b11610b905760405162461bcd60e51b81526004016104e6906131ae565b600654600090606490610bb190600160a01b900460ff16604089013561345a565b610bbb919061343a565b90508060076000610bcf60208a018a61274e565b6001600160a01b03166001600160a01b031681526020019081526020016000206000828254610bfe9190613422565b9091555060009050610c14826040890135613479565b9050610c20600a611f99565b610c2a600a611fa2565b95506000604051806101400160405280888152602001336001600160a01b03168152602001896000016020810190610c62919061274e565b6001600160a01b03168152602001896020016020810190610c83919061274e565b6001600160a01b031681526020018381526020016000815260200189606001358152602001896080013581526020018960a001358152602001428152509050610ccc3388611fa6565b600087815260086020818152604080842085518155828601516001820180546001600160a01b039283166001600160a01b0319918216179091558388015160028401805491841691831691909117905560608801516003840180549190931691161790556080860151600482015560a0860151600582015560c0860151600682015560e08601516007820155610100860151938101939093556101208501516009938401553384529190528120805491610d8583613508565b91905055507f8f0951b958a746e9baf3a3e1310aca761fd3f2faf101505bed8a533e0d84d84281604051610db99190613310565b60405180910390a1505050505050919050565b60006001600160a01b038216610df45760405162461bcd60e51b81526004016104e690612f75565b506001600160a01b031660009081526003602052604090205490565b610e18611c42565b610e22600061209b565b565b6006546001600160a01b031690565b6060600180546103fd906134d3565b600654600160a01b900460ff1681565b336000908152600960205260408120546060919067ffffffffffffffff811115610e8c57634e487b7160e01b600052604160045260246000fd5b604051908082528060200260200182016040528015610eb5578160200160208202803683370190505b509050600060015b610ec7600a611fa2565b8111610f3b576000818152600860205260409020600101546001600160a01b0316331415610f295780838381518110610f1057634e487b7160e01b600052603260045260246000fd5b602090810291909101015281610f2581613508565b9250505b80610f3381613508565b915050610ebd565b509091505090565b600060606000610f53600a611fa2565b67ffffffffffffffff811115610f7957634e487b7160e01b600052604160045260246000fd5b604051908082528060200260200182016040528015610fa2578160200160208202803683370190505b509050600060015b610fb4600a611fa2565b81116111c4576000818152600860205260409020600101546001600160a01b0316156111b25760008181526008602081815260408084208151610140810183528154815260018201546001600160a01b039081168286015260028301548116828501908152600384015482166060808501918252600486015460808601908152600587015460a080880191909152600688015460c0880152600788015460e088015299870154610100870152600990960154610120860152865198890187528251841689528151909316968801969096529251938601939093529051925190949392918301916110a391611cbd565b62ffffff16815260006020909101819052604051636352813560e11b8152919250908190730209c4dc18b2a1439fd2427e34e7cf3c6b91cfb99063c6a5026a906110f1908690600401613399565b608060405180830381600087803b15801561110b57600080fd5b505af115801561111f573d6000803e3d6000fd5b505050506040513d601f19601f820116820180604052508101906111439190612ac8565b935050509150836101000151811115801561116f5750818460e0015111158061116f57508360c0015182115b156111ad5784878761118081613508565b9850815181106111a057634e487b7160e01b600052603260045260246000fd5b6020026020010181815250505b505050505b806111bc81613508565b915050610faa565b508151156111f35760019350816040516020016111e19190612c7f565b60405160208183030381529060405292505b50509091565b61120b611204611692565b83836120ed565b5050565b61122061121a611692565b83611704565b61123c5760405162461bcd60e51b81526004016104e690612cfc565b61084b84848484612190565b6060611253826118a0565b61126f5760405162461bcd60e51b81526004016104e690612f01565b505060408051602081019091526000815290565b61128c826118a0565b6112a85760405162461bcd60e51b81526004016104e69061314b565b6112b23383611704565b6112ce5760405162461bcd60e51b81526004016104e690612fbe565b6000828152600860208181526040928390208351610140810185528154815260018201546001600160a01b039081169382019390935260028201548316818601819052600383015490931660608201526004808301546080830152600583015460a0830152600683015460c0830152600783015460e0830152938201546101008201526009909101546101208201529251636eb1769f60e11b815290918491839163dd62ed3e91611383913391309101612bc3565b60206040518083038186803b15801561139b57600080fd5b505afa1580156113af573d6000803e3d6000fd5b505050506040513d601f19601f820116820180604052508101906113d39190612ab0565b10156113f15760405162461bcd60e51b81526004016104e690612e5d565b6040516370a0823160e01b815283906001600160a01b038316906370a082319061141f903390600401612baf565b60206040518083038186803b15801561143757600080fd5b505afa15801561144b573d6000803e3d6000fd5b505050506040513d601f19601f8201168201806040525081019061146f9190612ab0565b101561148d5760405162461bcd60e51b81526004016104e69061301a565b828260800181815161149f9190613422565b90525060008481526008602081815260409283902085518155908501516001820180546001600160a01b03199081166001600160a01b03938416179091559386015160028301805486169183169190911790556060860151600383018054909516908216179093556080850151600482015560a0850151600582015560c0850151600682015560e08501516007820155610100850151918101919091556101208401516009909101556107b8908216333086611c9c565b6001600160a01b03918216600090815260056020908152604080832093909416825291909152205460ff1690565b61158c6126e0565b506000908152600860208181526040928390208351610140810185528154815260018201546001600160a01b039081169382019390935260028201548316948101949094526003810154909116606084015260048101546080840152600581015460a0840152600681015460c0840152600781015460e0840152908101546101008301526009015461012082015290565b611625611c42565b6001600160a01b03811661164b5760405162461bcd60e51b81526004016104e690612d9b565b6105ef8161209b565b6001600160e01b031981166301ffc9a760e01b14919050565b611676816118a0565b6105ef5760405162461bcd60e51b81526004016104e690613076565b3390565b600081815260046020526040902080546001600160a01b0319166001600160a01b03841690811790915581906116cb826108ac565b6001600160a01b03167f8c5be1e5ebec7d5bd14f71427d1e84f3dd0314c0f7b2291e5b200ac8c7c3b92560405160405180910390a45050565b600080611710836108ac565b9050806001600160a01b0316846001600160a01b0316148061173757506117378185611556565b8061175b5750836001600160a01b031661175084610480565b6001600160a01b0316145b949350505050565b826001600160a01b0316611776826108ac565b6001600160a01b03161461179c5760405162461bcd60e51b81526004016104e690612de1565b6001600160a01b0382166117c25760405162461bcd60e51b81526004016104e690612e86565b6117cf83838360016121c3565b826001600160a01b03166117e2826108ac565b6001600160a01b0316146118085760405162461bcd60e51b81526004016104e690612de1565b600081815260046020908152604080832080546001600160a01b03199081169091556001600160a01b0387811680865260038552838620805460001901905590871680865283862080546001019055868652600290945282852080549092168417909155905184937fddf252ad1be2c89b69c2b068fc378daa952ba7f163c4a11628f55a4df523b3ef91a4610543838383600161084b565b6000806118ac83611c81565b6001600160a01b0316141592915050565b6000818152600860208181526040928390208351610140810185528154815260018201546001600160a01b039081169382019390935260028201548316948101949094526003810154909116606084015260048101546080840152600581015460a0840152600681015460c0840152600781015460e084015290810154610100830152600901546101208201526119538261224b565b60008281526008602081815260408084208481556001810180546001600160a01b031990811690915560028201805482169055600382018054909116905560048101859055600581018590556006810185905560078101859055928301849055600992830184905533845291905281208054916119cf836134bc565b909155505060408082015160808301519151636eb1769f60e11b81529091906001600160a01b0383169063dd62ed3e90611a2390309073e592427a0aece92de3edee1f18e0157c0586156490600401612bc3565b60206040518083038186803b158015611a3b57600080fd5b505afa158015611a4f573d6000803e3d6000fd5b505050506040513d601f19601f82011682018060405250810190611a739190612ab0565b1015611aa357611aa36001600160a01b03821673e592427a0aece92de3edee1f18e0157c058615646000196122f8565b600060405180610100016040528084604001516001600160a01b0316815260200184606001516001600160a01b03168152602001611ae985604001518660600151611cbd565b62ffffff1681526020858101516001600160a01b031690820152604001611b1142600f613422565b815260808501516020820152600060408083018290526060909201525163414bf38960e01b815290915073e592427a0aece92de3edee1f18e0157c058615649063414bf38990611b659084906004016132a7565b602060405180830381600087803b158015611b7f57600080fd5b505af1158015611b93573d6000803e3d6000fd5b505050506040513d601f19601f82011682018060405250810190611bb79190612ab0565b60a08401526040517fd8ffcc063f3be2c5ac9ff5f250f9c19930a0e69a0222984c94b51e36b8192d5e906107e7908590613310565b6105438363a9059cbb60e01b8484604051602401611c0b929190612c66565b60408051601f198184030181529190526020810180516001600160e01b03166001600160e01b0319909316929092179091526123bb565b611c4a611692565b6001600160a01b0316611c5b610e24565b6001600160a01b031614610e225760405162461bcd60e51b81526004016104e690613041565b6000908152600260205260409020546001600160a01b031690565b61084b846323b872dd60e01b858585604051602401611c0b93929190612c05565b604051630b4c774160e11b81526000908190731f98431c8ad98523631ae4a59f267346ea31f98490631698ee8290611cff90879087906101f490600401612bdd565b60206040518083038186803b158015611d1757600080fd5b505afa158015611d2b573d6000803e3d6000fd5b505050506040513d601f19601f82011682018060405250810190611d4f9190612771565b604051630b4c774160e11b8152909150600090731f98431c8ad98523631ae4a59f267346ea31f98490631698ee8290611d929088908890610bb890600401612bdd565b60206040518083038186803b158015611daa57600080fd5b505afa158015611dbe573d6000803e3d6000fd5b505050506040513d601f19601f82011682018060405250810190611de29190612771565b604051630b4c774160e11b8152909150600090731f98431c8ad98523631ae4a59f267346ea31f98490631698ee8290611e25908990899061271090600401612bdd565b60206040518083038186803b158015611e3d57600080fd5b505afa158015611e51573d6000803e3d6000fd5b505050506040513d601f19601f82011682018060405250810190611e759190612771565b9050611e8a6001600160a01b03871683611ef5565b611e9d6001600160a01b03881685611ef5565b11611ee457611eb56001600160a01b03871682611ef5565b611ec86001600160a01b03881684611ef5565b11611ed857612710935083611edf565b610bb89350835b611eeb565b6101f49350835b5050505092915050565b6000611f008361244a565b15611f1657506001600160a01b038116316103e8565b6040516370a0823160e01b81526001600160a01b038416906370a0823190611f42908590600401612baf565b60206040518083038186803b158015611f5a57600080fd5b505afa158015611f6e573d6000803e3d6000fd5b505050506040513d601f19601f82011682018060405250810190611f929190612ab0565b90506103e8565b80546001019055565b5490565b6001600160a01b038216611fcc5760405162461bcd60e51b81526004016104e690612fe5565b611fd5816118a0565b15611ff25760405162461bcd60e51b81526004016104e690612e26565b6120006000838360016121c3565b612009816118a0565b156120265760405162461bcd60e51b81526004016104e690612e26565b6001600160a01b038216600081815260036020908152604080832080546001019055848352600290915280822080546001600160a01b0319168417905551839291907fddf252ad1be2c89b69c2b068fc378daa952ba7f163c4a11628f55a4df523b3ef908290a461120b60008383600161084b565b600680546001600160a01b038381166001600160a01b0319831681179093556040519116919082907f8be0079c531659141344cd1fd0a4f28419497f9722a3daafe3b4186f6b6457e090600090a35050565b816001600160a01b0316836001600160a01b0316141561211f5760405162461bcd60e51b81526004016104e690612eca565b6001600160a01b0383811660008181526005602090815260408083209487168084529490915290819020805460ff1916851515179055517f17307eab39ab6107e8899845ad3d59bd9653f200f220920489ca2b5937696c3190612183908590612cc3565b60405180910390a3505050565b61219b848484611763565b6121a784848484612480565b61084b5760405162461bcd60e51b81526004016104e690612d49565b600181111561084b576001600160a01b03841615612209576001600160a01b03841660009081526003602052604081208054839290612203908490613479565b90915550505b6001600160a01b0383161561084b576001600160a01b03831660009081526003602052604081208054839290612240908490613422565b909155505050505050565b6000612256826108ac565b90506122668160008460016121c3565b61226f826108ac565b600083815260046020908152604080832080546001600160a01b03199081169091556001600160a01b0385168085526003845282852080546000190190558785526002909352818420805490911690555192935084927fddf252ad1be2c89b69c2b068fc378daa952ba7f163c4a11628f55a4df523b3ef908390a461120b81600084600161084b565b8015806123805750604051636eb1769f60e11b81526001600160a01b0384169063dd62ed3e9061232e9030908690600401612bc3565b60206040518083038186803b15801561234657600080fd5b505afa15801561235a573d6000803e3d6000fd5b505050506040513d601f19601f8201168201806040525081019061237e9190612ab0565b155b61239c5760405162461bcd60e51b81526004016104e690613251565b6105438363095ea7b360e01b8484604051602401611c0b929190612c66565b6000612410826040518060400160405280602081526020017f5361666545524332303a206c6f772d6c6576656c2063616c6c206661696c6564815250856001600160a01b031661259b9092919063ffffffff16565b805190915015610543578080602001905181019061242e91906129c0565b6105435760405162461bcd60e51b81526004016104e690613207565b60006001600160a01b03821615806103e85750506001600160a01b031673eeeeeeeeeeeeeeeeeeeeeeeeeeeeeeeeeeeeeeee1490565b6000612494846001600160a01b03166125aa565b1561259057836001600160a01b031663150b7a026124b0611692565b8786866040518563ffffffff1660e01b81526004016124d29493929190612c29565b602060405180830381600087803b1580156124ec57600080fd5b505af192505050801561251c575060408051601f3d908101601f19168201909252612519918101906129f8565b60015b612576573d80801561254a576040519150601f19603f3d011682016040523d82523d6000602084013e61254f565b606091505b50805161256e5760405162461bcd60e51b81526004016104e690612d49565b805181602001fd5b6001600160e01b031916630a85bd0160e11b14905061175b565b506001949350505050565b606061175b84846000856125db565b600080826001600160a01b0316803b806020016040519081016040528181526000908060200190933c511192915050565b6060824710156125fd5760405162461bcd60e51b81526004016104e690612f2f565b600080866001600160a01b031685876040516126199190612b93565b60006040518083038185875af1925050503d8060008114612656576040519150601f19603f3d011682016040523d82523d6000602084013e61265b565b606091505b509150915061266c87838387612677565b979650505050505050565b606083156126b15782516126aa5761268e856125aa565b6126aa5760405162461bcd60e51b81526004016104e690613177565b508161175b565b61175b83838151156126c65781518083602001fd5b8060405162461bcd60e51b81526004016104e69190612ce9565b6040518061014001604052806000815260200160006001600160a01b0316815260200160006001600160a01b0316815260200160006001600160a01b031681526020016000815260200160008152602001600081526020016000815260200160008152602001600081525090565b60006020828403121561275f578081fd5b813561276a8161354f565b9392505050565b600060208284031215612782578081fd5b815161276a8161354f565b6000806040838503121561279f578081fd5b82356127aa8161354f565b915060208301356127ba8161354f565b809150509250929050565b6000806000606084860312156127d9578081fd5b83356127e48161354f565b925060208401356127f48161354f565b929592945050506040919091013590565b6000806000806080858703121561281a578081fd5b84356128258161354f565b93506020858101356128368161354f565b935060408601359250606086013567ffffffffffffffff80821115612859578384fd5b818801915088601f83011261286c578384fd5b81358181111561287e5761287e613539565b612890601f8201601f191685016133f8565b915080825289848285010111156128a5578485fd5b8084840185840137810190920192909252939692955090935050565b600080604083850312156128d3578182fd5b82356128de8161354f565b915060208301356127ba81613564565b60008060408385031215612900578182fd5b823561290b8161354f565b946020939093013593505050565b6000602080838503121561292b578182fd5b823567ffffffffffffffff80821115612942578384fd5b818501915085601f830112612955578384fd5b81358181111561296757612967613539565b83810291506129778483016133f8565b8181528481019084860184860187018a1015612991578788fd5b8795505b838610156129b3578035835260019590950194918601918601612995565b5098975050505050505050565b6000602082840312156129d1578081fd5b815161276a81613564565b6000602082840312156129ed578081fd5b813561276a81613572565b600060208284031215612a09578081fd5b815161276a81613572565b60008060208385031215612a26578182fd5b823567ffffffffffffffff80821115612a3d578384fd5b818501915085601f830112612a50578384fd5b813581811115612a5e578485fd5b866020828501011115612a6f578485fd5b60209290920196919550909350505050565b600060c08284031215612a92578081fd5b50919050565b600060208284031215612aa9578081fd5b5035919050565b600060208284031215612ac1578081fd5b5051919050565b60008060008060808587031215612add578182fd5b845193506020850151612aef8161354f565b604086015190935063ffffffff81168114612b08578283fd5b6060959095015193969295505050565b60008060408385031215612b2a578182fd5b50508035926020909101359150565b600060208284031215612b4a578081fd5b813560ff8116811461276a578182fd5b6001600160a01b03169052565b60008151808452612b7f816020860160208601613490565b601f01601f19169290920160200192915050565b60008251612ba5818460208701613490565b9190910192915050565b6001600160a01b0391909116815260200190565b6001600160a01b0392831681529116602082015260400190565b6001600160a01b03938416815291909216602082015262ffffff909116604082015260600190565b6001600160a01b039384168152919092166020820152604081019190915260600190565b6001600160a01b0385811682528416602082015260408101839052608060608201819052600090612c5c90830184612b67565b9695505050505050565b6001600160a01b03929092168252602082015260400190565b6020808252825182820181905260009190848201906040850190845b81811015612cb757835183529284019291840191600101612c9b565b50909695505050505050565b901515815260200190565b600083151582526040602083015261175b6040830184612b67565b60006020825261276a6020830184612b67565b6020808252602d908201527f4552433732313a2063616c6c6572206973206e6f7420746f6b656e206f776e6560408201526c1c881bdc88185c1c1c9bdd9959609a1b606082015260800190565b60208082526032908201527f4552433732313a207472616e7366657220746f206e6f6e20455243373231526560408201527131b2b4bb32b91034b6b83632b6b2b73a32b960711b606082015260800190565b60208082526026908201527f4f776e61626c653a206e6577206f776e657220697320746865207a65726f206160408201526564647265737360d01b606082015260800190565b60208082526025908201527f4552433732313a207472616e736665722066726f6d20696e636f72726563742060408201526437bbb732b960d91b606082015260800190565b6020808252601c908201527f4552433732313a20746f6b656e20616c7265616479206d696e74656400000000604082015260600190565b6020808252600f908201526e20b63637bbb0b731b29032b93937b960891b604082015260600190565b60208082526024908201527f4552433732313a207472616e7366657220746f20746865207a65726f206164646040820152637265737360e01b606082015260800190565b60208082526019908201527f4552433732313a20617070726f766520746f2063616c6c657200000000000000604082015260600190565b602080825260149082015273151bdad95b88191bd95cc81b9bdd08195e1a5cdd60621b604082015260600190565b60208082526026908201527f416464726573733a20696e73756666696369656e742062616c616e636520666f6040820152651c8818d85b1b60d21b606082015260800190565b60208082526029908201527f4552433732313a2061646472657373207a65726f206973206e6f7420612076616040820152683634b21037bbb732b960b91b606082015260800190565b6020808252600d908201526c2737ba103a34329037bbb732b960991b604082015260600190565b6020808252818101527f4552433732313a206d696e7420746f20746865207a65726f2061646472657373604082015260600190565b6020808252600d908201526c2130b630b731b29032b93937b960991b604082015260600190565b6020808252818101527f4f776e61626c653a2063616c6c6572206973206e6f7420746865206f776e6572604082015260600190565b60208082526018908201527f4552433732313a20696e76616c696420746f6b656e2049440000000000000000604082015260600190565b60208082526021908201527f4552433732313a20617070726f76616c20746f2063757272656e74206f776e656040820152603960f91b606082015260800190565b6020808252603d908201527f4552433732313a20617070726f76652063616c6c6572206973206e6f7420746f60408201527f6b656e206f776e6572206f7220617070726f76656420666f7220616c6c000000606082015260800190565b602080825260129082015271141bdcda5d1a5bdb881b9bdd08199bdd5b9960721b604082015260600190565b6020808252601d908201527f416464726573733a2063616c6c20746f206e6f6e2d636f6e7472616374000000604082015260600190565b6020808252601490820152734e6f7420656e6f756768206c697175696469747960601b604082015260600190565b6020808252601190820152704e6f20706f6f6c20617661696c61626c6560781b604082015260600190565b6020808252602a908201527f5361666545524332303a204552433230206f7065726174696f6e20646964206e6040820152691bdd081cdd58d8d9595960b21b606082015260800190565b60208082526036908201527f5361666545524332303a20617070726f76652066726f6d206e6f6e2d7a65726f60408201527520746f206e6f6e2d7a65726f20616c6c6f77616e636560501b606082015260800190565b81516001600160a01b03908116825260208084015182169083015260408084015162ffffff16908301526060808401518216908301526080808401519083015260a0838101519083015260c0808401519083015260e09283015116918101919091526101000190565b8151815260208083015161014083019161332c90840182612b5a565b50604083015161333f6040840182612b5a565b5060608301516133526060840182612b5a565b506080830151608083015260a083015160a083015260c083015160c083015260e083015160e083015261010080840151818401525061012080840151818401525092915050565b81516001600160a01b0390811682526020808401518216908301526040808401519083015260608084015162ffffff1690830152608092830151169181019190915260a00190565b90815260200190565b60ff91909116815260200190565b60405181810167ffffffffffffffff8111828210171561341a5761341a613539565b604052919050565b6000821982111561343557613435613523565b500190565b60008261345557634e487b7160e01b81526012600452602481fd5b500490565b600081600019048311821515161561347457613474613523565b500290565b60008282101561348b5761348b613523565b500390565b60005b838110156134ab578181015183820152602001613493565b8381111561084b5750506000910152565b6000816134cb576134cb613523565b506000190190565b6002810460018216806134e757607f821691505b60208210811415612a9257634e487b7160e01b600052602260045260246000fd5b600060001982141561351c5761351c613523565b5060010190565b634e487b7160e01b600052601160045260246000fd5b634e487b7160e01b600052604160045260246000fd5b6001600160a01b03811681146105ef57600080fd5b80151581146105ef57600080fd5b6001600160e01b0319811681146105ef57600080fdfea26469706673582212206a8586b713124322dcb2885b38f47caf0e8f7d87ec7b95b74a327a93b38df13664736f6c63430008000033",
  "devdoc": {
    "kind": "dev",
    "methods": {
      "approve(address,uint256)": {
        "details": "See {IERC721-approve}."
      },
      "balanceOf(address)": {
        "details": "See {IERC721-balanceOf}."
      },
      "getApproved(uint256)": {
        "details": "See {IERC721-getApproved}."
      },
      "isApprovedForAll(address,address)": {
        "details": "See {IERC721-isApprovedForAll}."
      },
      "name()": {
        "details": "See {IERC721Metadata-name}."
      },
      "owner()": {
        "details": "Returns the address of the current owner."
      },
      "ownerOf(uint256)": {
        "details": "See {IERC721-ownerOf}."
      },
      "renounceOwnership()": {
        "details": "Leaves the contract without owner. It will not be possible to call `onlyOwner` functions anymore. Can only be called by the current owner. NOTE: Renouncing ownership will leave the contract without an owner, thereby removing any functionality that is only available to the owner."
      },
      "safeTransferFrom(address,address,uint256)": {
        "details": "See {IERC721-safeTransferFrom}."
      },
      "safeTransferFrom(address,address,uint256,bytes)": {
        "details": "See {IERC721-safeTransferFrom}."
      },
      "setApprovalForAll(address,bool)": {
        "details": "See {IERC721-setApprovalForAll}."
      },
      "supportsInterface(bytes4)": {
        "details": "See {IERC165-supportsInterface}."
      },
      "symbol()": {
        "details": "See {IERC721Metadata-symbol}."
      },
      "transferFrom(address,address,uint256)": {
        "details": "See {IERC721-transferFrom}."
      },
      "transferOwnership(address)": {
        "details": "Transfers ownership of the contract to a new account (`newOwner`). Can only be called by the current owner."
      }
    },
    "version": 1
  },
  "userdoc": {
    "kind": "user",
    "methods": {},
    "version": 1
  },
  "storageLayout": {
    "storage": [
      {
        "astId": 533,
        "contract": "contracts/SwapaPortfolio.sol:SwapaPortfolio",
        "label": "_name",
        "offset": 0,
        "slot": "0",
        "type": "t_string_storage"
      },
      {
        "astId": 535,
        "contract": "contracts/SwapaPortfolio.sol:SwapaPortfolio",
        "label": "_symbol",
        "offset": 0,
        "slot": "1",
        "type": "t_string_storage"
      },
      {
        "astId": 539,
        "contract": "contracts/SwapaPortfolio.sol:SwapaPortfolio",
        "label": "_owners",
        "offset": 0,
        "slot": "2",
        "type": "t_mapping(t_uint256,t_address)"
      },
      {
        "astId": 543,
        "contract": "contracts/SwapaPortfolio.sol:SwapaPortfolio",
        "label": "_balances",
        "offset": 0,
        "slot": "3",
        "type": "t_mapping(t_address,t_uint256)"
      },
      {
        "astId": 547,
        "contract": "contracts/SwapaPortfolio.sol:SwapaPortfolio",
        "label": "_tokenApprovals",
        "offset": 0,
        "slot": "4",
        "type": "t_mapping(t_uint256,t_address)"
      },
      {
        "astId": 553,
        "contract": "contracts/SwapaPortfolio.sol:SwapaPortfolio",
        "label": "_operatorApprovals",
        "offset": 0,
        "slot": "5",
        "type": "t_mapping(t_address,t_mapping(t_address,t_bool))"
      },
      {
        "astId": 7,
        "contract": "contracts/SwapaPortfolio.sol:SwapaPortfolio",
        "label": "_owner",
        "offset": 0,
        "slot": "6",
        "type": "t_address"
      },
      {
        "astId": 4018,
        "contract": "contracts/SwapaPortfolio.sol:SwapaPortfolio",
        "label": "feeRate",
        "offset": 20,
        "slot": "6",
        "type": "t_uint8"
      },
      {
        "astId": 4022,
        "contract": "contracts/SwapaPortfolio.sol:SwapaPortfolio",
        "label": "collectedFees",
        "offset": 0,
        "slot": "7",
        "type": "t_mapping(t_address,t_uint256)"
      },
      {
        "astId": 4027,
        "contract": "contracts/SwapaPortfolio.sol:SwapaPortfolio",
        "label": "positions",
        "offset": 0,
        "slot": "8",
        "type": "t_mapping(t_uint256,t_struct(Position)3892_storage)"
      },
      {
        "astId": 4031,
        "contract": "contracts/SwapaPortfolio.sol:SwapaPortfolio",
        "label": "userPositionsCounter",
        "offset": 0,
        "slot": "9",
        "type": "t_mapping(t_address,t_uint256)"
      },
      {
        "astId": 4034,
        "contract": "contracts/SwapaPortfolio.sol:SwapaPortfolio",
        "label": "_tokenIds",
        "offset": 0,
        "slot": "10",
        "type": "t_struct(Counter)1971_storage"
      }
    ],
    "types": {
      "t_address": {
        "encoding": "inplace",
        "label": "address",
        "numberOfBytes": "20"
      },
      "t_bool": {
        "encoding": "inplace",
        "label": "bool",
        "numberOfBytes": "1"
      },
      "t_mapping(t_address,t_bool)": {
        "encoding": "mapping",
        "key": "t_address",
        "label": "mapping(address => bool)",
        "numberOfBytes": "32",
        "value": "t_bool"
      },
      "t_mapping(t_address,t_mapping(t_address,t_bool))": {
        "encoding": "mapping",
        "key": "t_address",
        "label": "mapping(address => mapping(address => bool))",
        "numberOfBytes": "32",
        "value": "t_mapping(t_address,t_bool)"
      },
      "t_mapping(t_address,t_uint256)": {
        "encoding": "mapping",
        "key": "t_address",
        "label": "mapping(address => uint256)",
        "numberOfBytes": "32",
        "value": "t_uint256"
      },
      "t_mapping(t_uint256,t_address)": {
        "encoding": "mapping",
        "key": "t_uint256",
        "label": "mapping(uint256 => address)",
        "numberOfBytes": "32",
        "value": "t_address"
      },
      "t_mapping(t_uint256,t_struct(Position)3892_storage)": {
        "encoding": "mapping",
        "key": "t_uint256",
        "label": "mapping(uint256 => struct ISwapaInterface.Position)",
        "numberOfBytes": "32",
        "value": "t_struct(Position)3892_storage"
      },
      "t_string_storage": {
        "encoding": "bytes",
        "label": "string",
        "numberOfBytes": "32"
      },
      "t_struct(Counter)1971_storage": {
        "encoding": "inplace",
        "label": "struct Counters.Counter",
        "members": [
          {
            "astId": 1970,
            "contract": "contracts/SwapaPortfolio.sol:SwapaPortfolio",
            "label": "_value",
            "offset": 0,
            "slot": "0",
            "type": "t_uint256"
          }
        ],
        "numberOfBytes": "32"
      },
      "t_struct(Position)3892_storage": {
        "encoding": "inplace",
        "label": "struct ISwapaInterface.Position",
        "members": [
          {
            "astId": 3873,
            "contract": "contracts/SwapaPortfolio.sol:SwapaPortfolio",
            "label": "id",
            "offset": 0,
            "slot": "0",
            "type": "t_uint256"
          },
          {
            "astId": 3875,
            "contract": "contracts/SwapaPortfolio.sol:SwapaPortfolio",
            "label": "owner",
            "offset": 0,
            "slot": "1",
            "type": "t_address"
          },
          {
            "astId": 3877,
            "contract": "contracts/SwapaPortfolio.sol:SwapaPortfolio",
            "label": "fromToken",
            "offset": 0,
            "slot": "2",
            "type": "t_address"
          },
          {
            "astId": 3879,
            "contract": "contracts/SwapaPortfolio.sol:SwapaPortfolio",
            "label": "toToken",
            "offset": 0,
            "slot": "3",
            "type": "t_address"
          },
          {
            "astId": 3881,
            "contract": "contracts/SwapaPortfolio.sol:SwapaPortfolio",
            "label": "amount",
            "offset": 0,
            "slot": "4",
            "type": "t_uint256"
          },
          {
            "astId": 3883,
            "contract": "contracts/SwapaPortfolio.sol:SwapaPortfolio",
            "label": "amountOut",
            "offset": 0,
            "slot": "5",
            "type": "t_uint256"
          },
          {
            "astId": 3885,
            "contract": "contracts/SwapaPortfolio.sol:SwapaPortfolio",
            "label": "takeProfit",
            "offset": 0,
            "slot": "6",
            "type": "t_uint256"
          },
          {
            "astId": 3887,
            "contract": "contracts/SwapaPortfolio.sol:SwapaPortfolio",
            "label": "stopLoss",
            "offset": 0,
            "slot": "7",
            "type": "t_uint256"
          },
          {
            "astId": 3889,
            "contract": "contracts/SwapaPortfolio.sol:SwapaPortfolio",
            "label": "maxGasPrice",
            "offset": 0,
            "slot": "8",
            "type": "t_uint256"
          },
          {
            "astId": 3891,
            "contract": "contracts/SwapaPortfolio.sol:SwapaPortfolio",
            "label": "createdAt",
            "offset": 0,
            "slot": "9",
            "type": "t_uint256"
          }
        ],
        "numberOfBytes": "320"
      },
      "t_uint256": {
        "encoding": "inplace",
        "label": "uint256",
        "numberOfBytes": "32"
      },
      "t_uint8": {
        "encoding": "inplace",
        "label": "uint8",
        "numberOfBytes": "1"
      }
    }
  }
}